{
  "contracts/Integrations/LUSDUsdToLUSDEth.sol": {
    "LUSDUsdToLUSDEth": {
      "abi": [
        {
          "inputs": [],
          "stateMutability": "nonpayable",
          "type": "constructor"
        },
        {
          "inputs": [],
          "name": "ETH_USD",
          "outputs": [
            {
              "internalType": "contract IPriceFeed",
              "name": "",
              "type": "address"
            }
          ],
          "stateMutability": "view",
          "type": "function"
        },
        {
          "inputs": [],
          "name": "LUSD_USD",
          "outputs": [
            {
              "internalType": "contract IPriceFeed",
              "name": "",
              "type": "address"
            }
          ],
          "stateMutability": "view",
          "type": "function"
        },
        {
          "inputs": [],
          "name": "latestAnswer",
          "outputs": [
            {
              "internalType": "int256",
              "name": "",
              "type": "int256"
            }
          ],
          "stateMutability": "view",
          "type": "function"
        }
      ],
      "evm": {
        "bytecode": {
          "linkReferences": {},
          "object": "608060405234801561001057600080fd5b506101fb806100206000396000f3fe608060405234801561001057600080fd5b50600436106100415760003560e01c806350d25bcd146100465780636260f55b14610060578063a00d9b7314610084575b600080fd5b61004e61008c565b60408051918252519081900360200190f35b610068610195565b604080516001600160a01b039092168252519081900360200190f35b6100686101ad565b6000735f4ec3df9cbd43714fe2740f5e3616155c5b84196001600160a01b03166350d25bcd6040518163ffffffff1660e01b815260040160206040518083038186803b1580156100db57600080fd5b505afa1580156100ef573d6000803e3d6000fd5b505050506040513d602081101561010557600080fd5b5051604080516350d25bcd60e01b81529051733d7ae7e594f2f2091ad8798313450130d0aba3a0916350d25bcd916004808301926020929190829003018186803b15801561015257600080fd5b505afa158015610166573d6000803e3d6000fd5b505050506040513d602081101561017c57600080fd5b5051670de0b6b3a7640000028161018f57fe5b05905090565b735f4ec3df9cbd43714fe2740f5e3616155c5b841981565b733d7ae7e594f2f2091ad8798313450130d0aba3a08156fea2646970667358221220ef996198431524f0c40f8a6c00cc56e8430d972c86eb78e8f9f9ec99319c93e964736f6c634300060b0033",
          "opcodes": "PUSH1 0x80 PUSH1 0x40 MSTORE CALLVALUE DUP1 ISZERO PUSH2 0x10 JUMPI PUSH1 0x0 DUP1 REVERT JUMPDEST POP PUSH2 0x1FB DUP1 PUSH2 0x20 PUSH1 0x0 CODECOPY PUSH1 0x0 RETURN INVALID PUSH1 0x80 PUSH1 0x40 MSTORE CALLVALUE DUP1 ISZERO PUSH2 0x10 JUMPI PUSH1 0x0 DUP1 REVERT JUMPDEST POP PUSH1 0x4 CALLDATASIZE LT PUSH2 0x41 JUMPI PUSH1 0x0 CALLDATALOAD PUSH1 0xE0 SHR DUP1 PUSH4 0x50D25BCD EQ PUSH2 0x46 JUMPI DUP1 PUSH4 0x6260F55B EQ PUSH2 0x60 JUMPI DUP1 PUSH4 0xA00D9B73 EQ PUSH2 0x84 JUMPI JUMPDEST PUSH1 0x0 DUP1 REVERT JUMPDEST PUSH2 0x4E PUSH2 0x8C JUMP JUMPDEST PUSH1 0x40 DUP1 MLOAD SWAP2 DUP3 MSTORE MLOAD SWAP1 DUP2 SWAP1 SUB PUSH1 0x20 ADD SWAP1 RETURN JUMPDEST PUSH2 0x68 PUSH2 0x195 JUMP JUMPDEST PUSH1 0x40 DUP1 MLOAD PUSH1 0x1 PUSH1 0x1 PUSH1 0xA0 SHL SUB SWAP1 SWAP3 AND DUP3 MSTORE MLOAD SWAP1 DUP2 SWAP1 SUB PUSH1 0x20 ADD SWAP1 RETURN JUMPDEST PUSH2 0x68 PUSH2 0x1AD JUMP JUMPDEST PUSH1 0x0 PUSH20 0x5F4EC3DF9CBD43714FE2740F5E3616155C5B8419 PUSH1 0x1 PUSH1 0x1 PUSH1 0xA0 SHL SUB AND PUSH4 0x50D25BCD PUSH1 0x40 MLOAD DUP2 PUSH4 0xFFFFFFFF AND PUSH1 0xE0 SHL DUP2 MSTORE PUSH1 0x4 ADD PUSH1 0x20 PUSH1 0x40 MLOAD DUP1 DUP4 SUB DUP2 DUP7 DUP1 EXTCODESIZE ISZERO DUP1 ISZERO PUSH2 0xDB JUMPI PUSH1 0x0 DUP1 REVERT JUMPDEST POP GAS STATICCALL ISZERO DUP1 ISZERO PUSH2 0xEF JUMPI RETURNDATASIZE PUSH1 0x0 DUP1 RETURNDATACOPY RETURNDATASIZE PUSH1 0x0 REVERT JUMPDEST POP POP POP POP PUSH1 0x40 MLOAD RETURNDATASIZE PUSH1 0x20 DUP2 LT ISZERO PUSH2 0x105 JUMPI PUSH1 0x0 DUP1 REVERT JUMPDEST POP MLOAD PUSH1 0x40 DUP1 MLOAD PUSH4 0x50D25BCD PUSH1 0xE0 SHL DUP2 MSTORE SWAP1 MLOAD PUSH20 0x3D7AE7E594F2F2091AD8798313450130D0ABA3A0 SWAP2 PUSH4 0x50D25BCD SWAP2 PUSH1 0x4 DUP1 DUP4 ADD SWAP3 PUSH1 0x20 SWAP3 SWAP2 SWAP1 DUP3 SWAP1 SUB ADD DUP2 DUP7 DUP1 EXTCODESIZE ISZERO DUP1 ISZERO PUSH2 0x152 JUMPI PUSH1 0x0 DUP1 REVERT JUMPDEST POP GAS STATICCALL ISZERO DUP1 ISZERO PUSH2 0x166 JUMPI RETURNDATASIZE PUSH1 0x0 DUP1 RETURNDATACOPY RETURNDATASIZE PUSH1 0x0 REVERT JUMPDEST POP POP POP POP PUSH1 0x40 MLOAD RETURNDATASIZE PUSH1 0x20 DUP2 LT ISZERO PUSH2 0x17C JUMPI PUSH1 0x0 DUP1 REVERT JUMPDEST POP MLOAD PUSH8 0xDE0B6B3A7640000 MUL DUP2 PUSH2 0x18F JUMPI INVALID JUMPDEST SDIV SWAP1 POP SWAP1 JUMP JUMPDEST PUSH20 0x5F4EC3DF9CBD43714FE2740F5E3616155C5B8419 DUP2 JUMP JUMPDEST PUSH20 0x3D7AE7E594F2F2091AD8798313450130D0ABA3A0 DUP2 JUMP INVALID LOG2 PUSH5 0x6970667358 0x22 SLT KECCAK256 0xEF SWAP10 PUSH2 0x9843 ISZERO 0x24 CREATE 0xC4 0xF DUP11 PUSH13 0xCC56E8430D972C86EB78E8F9 0xF9 0xEC SWAP10 BALANCE SWAP13 SWAP4 0xE9 PUSH5 0x736F6C6343 STOP MOD SIGNEXTEND STOP CALLER "
        },
        "methodIdentifiers": {
          "ETH_USD()": "6260f55b",
          "LUSD_USD()": "a00d9b73",
          "latestAnswer()": "50d25bcd"
        }
      }
    }
  }
}